8=FIX.4.4|9=175|35=D|11=123456|54=2|60=2001-09-11T09:30:47-05:00|40=2|44=93.25|1=26522154|52=2001-09-11T09:30:47-05:00|43=N|97=N|34=521|49=AFUNDMGR|56=ABROKER|55=IBM|48=459200101|22=1|38=1000|10=200
